{
  "_format": "hh-sol-artifact-1",
  "contractName": "SoulboundToken",
  "sourceName": "contracts/SoulboundToken.sol",
  "abi": [
    {
      "inputs": [],
      "stateMutability": "nonpayable",
      "type": "constructor"
    },
    {
      "anonymous": false,
      "inputs": [
        {
          "indexed": true,
          "internalType": "address",
          "name": "owner",
          "type": "address"
        },
        {
          "indexed": true,
          "internalType": "address",
          "name": "approved",
          "type": "address"
        },
        {
          "indexed": true,
          "internalType": "uint256",
          "name": "tokenId",
          "type": "uint256"
        }
      ],
      "name": "Approval",
      "type": "event"
    },
    {
      "anonymous": false,
      "inputs": [
        {
          "indexed": true,
          "internalType": "address",
          "name": "owner",
          "type": "address"
        },
        {
          "indexed": true,
          "internalType": "address",
          "name": "operator",
          "type": "address"
        },
        {
          "indexed": false,
          "internalType": "bool",
          "name": "approved",
          "type": "bool"
        }
      ],
      "name": "ApprovalForAll",
      "type": "event"
    },
    {
      "anonymous": false,
      "inputs": [
        {
          "indexed": true,
          "internalType": "address",
          "name": "previousOwner",
          "type": "address"
        },
        {
          "indexed": true,
          "internalType": "address",
          "name": "newOwner",
          "type": "address"
        }
      ],
      "name": "OwnershipTransferred",
      "type": "event"
    },
    {
      "anonymous": false,
      "inputs": [
        {
          "indexed": true,
          "internalType": "address",
          "name": "from",
          "type": "address"
        },
        {
          "indexed": true,
          "internalType": "address",
          "name": "to",
          "type": "address"
        },
        {
          "indexed": true,
          "internalType": "uint256",
          "name": "tokenId",
          "type": "uint256"
        }
      ],
      "name": "Transfer",
      "type": "event"
    },
    {
      "inputs": [
        {
          "internalType": "address",
          "name": "to",
          "type": "address"
        },
        {
          "internalType": "uint256",
          "name": "tokenId",
          "type": "uint256"
        }
      ],
      "name": "approve",
      "outputs": [],
      "stateMutability": "nonpayable",
      "type": "function"
    },
    {
      "inputs": [
        {
          "internalType": "address",
          "name": "owner",
          "type": "address"
        }
      ],
      "name": "balanceOf",
      "outputs": [
        {
          "internalType": "uint256",
          "name": "",
          "type": "uint256"
        }
      ],
      "stateMutability": "view",
      "type": "function"
    },
    {
      "inputs": [
        {
          "internalType": "uint256",
          "name": "tokenId",
          "type": "uint256"
        }
      ],
      "name": "burn",
      "outputs": [],
      "stateMutability": "nonpayable",
      "type": "function"
    },
    {
      "inputs": [
        {
          "internalType": "uint256",
          "name": "tokenId",
          "type": "uint256"
        }
      ],
      "name": "getApproved",
      "outputs": [
        {
          "internalType": "address",
          "name": "",
          "type": "address"
        }
      ],
      "stateMutability": "view",
      "type": "function"
    },
    {
      "inputs": [
        {
          "internalType": "address",
          "name": "owner",
          "type": "address"
        },
        {
          "internalType": "address",
          "name": "operator",
          "type": "address"
        }
      ],
      "name": "isApprovedForAll",
      "outputs": [
        {
          "internalType": "bool",
          "name": "",
          "type": "bool"
        }
      ],
      "stateMutability": "view",
      "type": "function"
    },
    {
      "inputs": [],
      "name": "name",
      "outputs": [
        {
          "internalType": "string",
          "name": "",
          "type": "string"
        }
      ],
      "stateMutability": "view",
      "type": "function"
    },
    {
      "inputs": [],
      "name": "owner",
      "outputs": [
        {
          "internalType": "address",
          "name": "",
          "type": "address"
        }
      ],
      "stateMutability": "view",
      "type": "function"
    },
    {
      "inputs": [
        {
          "internalType": "uint256",
          "name": "tokenId",
          "type": "uint256"
        }
      ],
      "name": "ownerOf",
      "outputs": [
        {
          "internalType": "address",
          "name": "",
          "type": "address"
        }
      ],
      "stateMutability": "view",
      "type": "function"
    },
    {
      "inputs": [],
      "name": "renounceOwnership",
      "outputs": [],
      "stateMutability": "nonpayable",
      "type": "function"
    },
    {
      "inputs": [
        {
          "internalType": "address",
          "name": "to",
          "type": "address"
        },
        {
          "internalType": "string",
          "name": "uri",
          "type": "string"
        }
      ],
      "name": "safeMint",
      "outputs": [],
      "stateMutability": "nonpayable",
      "type": "function"
    },
    {
      "inputs": [
        {
          "internalType": "address",
          "name": "from",
          "type": "address"
        },
        {
          "internalType": "address",
          "name": "to",
          "type": "address"
        },
        {
          "internalType": "uint256",
          "name": "tokenId",
          "type": "uint256"
        }
      ],
      "name": "safeTransferFrom",
      "outputs": [],
      "stateMutability": "nonpayable",
      "type": "function"
    },
    {
      "inputs": [
        {
          "internalType": "address",
          "name": "from",
          "type": "address"
        },
        {
          "internalType": "address",
          "name": "to",
          "type": "address"
        },
        {
          "internalType": "uint256",
          "name": "tokenId",
          "type": "uint256"
        },
        {
          "internalType": "bytes",
          "name": "data",
          "type": "bytes"
        }
      ],
      "name": "safeTransferFrom",
      "outputs": [],
      "stateMutability": "nonpayable",
      "type": "function"
    },
    {
      "inputs": [
        {
          "internalType": "address",
          "name": "operator",
          "type": "address"
        },
        {
          "internalType": "bool",
          "name": "approved",
          "type": "bool"
        }
      ],
      "name": "setApprovalForAll",
      "outputs": [],
      "stateMutability": "nonpayable",
      "type": "function"
    },
    {
      "inputs": [
        {
          "internalType": "bytes4",
          "name": "interfaceId",
          "type": "bytes4"
        }
      ],
      "name": "supportsInterface",
      "outputs": [
        {
          "internalType": "bool",
          "name": "",
          "type": "bool"
        }
      ],
      "stateMutability": "view",
      "type": "function"
    },
    {
      "inputs": [],
      "name": "symbol",
      "outputs": [
        {
          "internalType": "string",
          "name": "",
          "type": "string"
        }
      ],
      "stateMutability": "view",
      "type": "function"
    },
    {
      "inputs": [
        {
          "internalType": "uint256",
          "name": "tokenId",
          "type": "uint256"
        }
      ],
      "name": "tokenURI",
      "outputs": [
        {
          "internalType": "string",
          "name": "",
          "type": "string"
        }
      ],
      "stateMutability": "view",
      "type": "function"
    },
    {
      "inputs": [
        {
          "internalType": "address",
          "name": "from",
          "type": "address"
        },
        {
          "internalType": "address",
          "name": "to",
          "type": "address"
        },
        {
          "internalType": "uint256",
          "name": "tokenId",
          "type": "uint256"
        }
      ],
      "name": "transferFrom",
      "outputs": [],
      "stateMutability": "nonpayable",
      "type": "function"
    },
    {
      "inputs": [
        {
          "internalType": "address",
          "name": "newOwner",
          "type": "address"
        }
      ],
      "name": "transferOwnership",
      "outputs": [],
      "stateMutability": "nonpayable",
      "type": "function"
    }
  ],
  "bytecode": "0x60806040523480156200001157600080fd5b506040518060400160405280600781526020017f53414749545441000000000000000000000000000000000000000000000000008152506040518060400160405280600381526020017f5347540000000000000000000000000000000000000000000000000000000000815250816000908051906020019062000096929190620001a6565b508060019080519060200190620000af929190620001a6565b505050620000d2620000c6620000d860201b60201c565b620000e060201b60201c565b620002bb565b600033905090565b6000600760009054906101000a900473ffffffffffffffffffffffffffffffffffffffff16905081600760006101000a81548173ffffffffffffffffffffffffffffffffffffffff021916908373ffffffffffffffffffffffffffffffffffffffff1602179055508173ffffffffffffffffffffffffffffffffffffffff168173ffffffffffffffffffffffffffffffffffffffff167f8be0079c531659141344cd1fd0a4f28419497f9722a3daafe3b4186f6b6457e060405160405180910390a35050565b828054620001b49062000256565b90600052602060002090601f016020900481019282620001d8576000855562000224565b82601f10620001f357805160ff191683800117855562000224565b8280016001018555821562000224579182015b828111156200022357825182559160200191906001019062000206565b5b50905062000233919062000237565b5090565b5b808211156200025257600081600090555060010162000238565b5090565b600060028204905060018216806200026f57607f821691505b602082108114156200028657620002856200028c565b5b50919050565b7f4e487b7100000000000000000000000000000000000000000000000000000000600052602260045260246000fd5b612fb380620002cb6000396000f3fe608060405234801561001057600080fd5b50600436106101165760003560e01c8063715018a6116100a2578063b88d4fde11610071578063b88d4fde146102cb578063c87b56dd146102e7578063d204c45e14610317578063e985e9c514610333578063f2fde38b1461036357610116565b8063715018a6146102695780638da5cb5b1461027357806395d89b4114610291578063a22cb465146102af57610116565b806323b872dd116100e957806323b872dd146101b557806342842e0e146101d157806342966c68146101ed5780636352211e1461020957806370a082311461023957610116565b806301ffc9a71461011b57806306fdde031461014b578063081812fc14610169578063095ea7b314610199575b600080fd5b61013560048036038101906101309190612164565b61037f565b6040516101429190612547565b60405180910390f35b610153610461565b6040516101609190612562565b60405180910390f35b610183600480360381019061017e91906121b6565b6104f3565b60405161019091906124e0565b60405180910390f35b6101b360048036038101906101ae9190612128565b610539565b005b6101cf60048036038101906101ca9190611fce565b610651565b005b6101eb60048036038101906101e69190611fce565b6106b1565b005b610207600480360381019061020291906121b6565b6106d1565b005b610223600480360381019061021e91906121b6565b61072d565b60405161023091906124e0565b60405180910390f35b610253600480360381019061024e9190611f69565b6107df565b6040516102609190612764565b60405180910390f35b610271610897565b005b61027b6108ab565b60405161028891906124e0565b60405180910390f35b6102996108d5565b6040516102a69190612562565b60405180910390f35b6102c960048036038101906102c49190612098565b610967565b005b6102e560048036038101906102e0919061201d565b61097d565b005b61030160048036038101906102fc91906121b6565b6109df565b60405161030e9190612562565b60405180910390f35b610331600480360381019061032c91906120d4565b6109f1565b005b61034d60048036038101906103489190611f92565b610a2a565b60405161035a9190612547565b60405180910390f35b61037d60048036038101906103789190611f69565b610abe565b005b60007f80ac58cd000000000000000000000000000000000000000000000000000000007bffffffffffffffffffffffffffffffffffffffffffffffffffffffff1916827bffffffffffffffffffffffffffffffffffffffffffffffffffffffff1916148061044a57507f5b5e139f000000000000000000000000000000000000000000000000000000007bffffffffffffffffffffffffffffffffffffffffffffffffffffffff1916827bffffffffffffffffffffffffffffffffffffffffffffffffffffffff1916145b8061045a575061045982610b42565b5b9050919050565b606060008054610470906129ba565b80601f016020809104026020016040519081016040528092919081815260200182805461049c906129ba565b80156104e95780601f106104be576101008083540402835291602001916104e9565b820191906000526020600020905b8154815290600101906020018083116104cc57829003601f168201915b5050505050905090565b60006104fe82610bac565b6004600083815260200190815260200160002060009054906101000a900473ffffffffffffffffffffffffffffffffffffffff169050919050565b60006105448261072d565b90508073ffffffffffffffffffffffffffffffffffffffff168373ffffffffffffffffffffffffffffffffffffffff1614156105b5576040517f08c379a00000000000000000000000000000000000000000000000000000000081526004016105ac90612724565b60405180910390fd5b8073ffffffffffffffffffffffffffffffffffffffff166105d4610bf7565b73ffffffffffffffffffffffffffffffffffffffff1614806106035750610602816105fd610bf7565b610a2a565b5b610642576040517f08c379a000000000000000000000000000000000000000000000000000000000815260040161063990612684565b60405180910390fd5b61064c8383610bff565b505050565b61066261065c610bf7565b82610cb8565b6106a1576040517f08c379a000000000000000000000000000000000000000000000000000000000815260040161069890612744565b60405180910390fd5b6106ac838383610d4d565b505050565b6106cc8383836040518060200160405280600081525061097d565b505050565b6106e26106dc610bf7565b82610cb8565b610721576040517f08c379a000000000000000000000000000000000000000000000000000000000815260040161071890612744565b60405180910390fd5b61072a81610fb4565b50565b6000806002600084815260200190815260200160002060009054906101000a900473ffffffffffffffffffffffffffffffffffffffff169050600073ffffffffffffffffffffffffffffffffffffffff168173ffffffffffffffffffffffffffffffffffffffff1614156107d6576040517f08c379a00000000000000000000000000000000000000000000000000000000081526004016107cd906126e4565b60405180910390fd5b80915050919050565b60008073ffffffffffffffffffffffffffffffffffffffff168273ffffffffffffffffffffffffffffffffffffffff161415610850576040517f08c379a000000000000000000000000000000000000000000000000000000000815260040161084790612644565b60405180910390fd5b600360008373ffffffffffffffffffffffffffffffffffffffff1673ffffffffffffffffffffffffffffffffffffffff168152602001908152602001600020549050919050565b61089f610fc0565b6108a9600061103e565b565b6000600760009054906101000a900473ffffffffffffffffffffffffffffffffffffffff16905090565b6060600180546108e4906129ba565b80601f0160208091040260200160405190810160405280929190818152602001828054610910906129ba565b801561095d5780601f106109325761010080835404028352916020019161095d565b820191906000526020600020905b81548152906001019060200180831161094057829003601f168201915b5050505050905090565b610979610972610bf7565b8383611104565b5050565b61098e610988610bf7565b83610cb8565b6109cd576040517f08c379a00000000000000000000000000000000000000000000000000000000081526004016109c490612744565b60405180910390fd5b6109d984848484611271565b50505050565b60606109ea826112cd565b9050919050565b6109f9610fc0565b6000610a0560086113e0565b9050610a1160086113ee565b610a1b8382611404565b610a258183611422565b505050565b6000600560008473ffffffffffffffffffffffffffffffffffffffff1673ffffffffffffffffffffffffffffffffffffffff16815260200190815260200160002060008373ffffffffffffffffffffffffffffffffffffffff1673ffffffffffffffffffffffffffffffffffffffff16815260200190815260200160002060009054906101000a900460ff16905092915050565b610ac6610fc0565b600073ffffffffffffffffffffffffffffffffffffffff168173ffffffffffffffffffffffffffffffffffffffff161415610b36576040517f08c379a0000000000000000000000000000000000000000000000000000000008152600401610b2d906125a4565b60405180910390fd5b610b3f8161103e565b50565b60007f01ffc9a7000000000000000000000000000000000000000000000000000000007bffffffffffffffffffffffffffffffffffffffffffffffffffffffff1916827bffffffffffffffffffffffffffffffffffffffffffffffffffffffff1916149050919050565b610bb581611496565b610bf4576040517f08c379a0000000000000000000000000000000000000000000000000000000008152600401610beb906126e4565b60405180910390fd5b50565b600033905090565b816004600083815260200190815260200160002060006101000a81548173ffffffffffffffffffffffffffffffffffffffff021916908373ffffffffffffffffffffffffffffffffffffffff160217905550808273ffffffffffffffffffffffffffffffffffffffff16610c728361072d565b73ffffffffffffffffffffffffffffffffffffffff167f8c5be1e5ebec7d5bd14f71427d1e84f3dd0314c0f7b2291e5b200ac8c7c3b92560405160405180910390a45050565b600080610cc48361072d565b90508073ffffffffffffffffffffffffffffffffffffffff168473ffffffffffffffffffffffffffffffffffffffff161480610d065750610d058185610a2a565b5b80610d4457508373ffffffffffffffffffffffffffffffffffffffff16610d2c846104f3565b73ffffffffffffffffffffffffffffffffffffffff16145b91505092915050565b8273ffffffffffffffffffffffffffffffffffffffff16610d6d8261072d565b73ffffffffffffffffffffffffffffffffffffffff1614610dc3576040517f08c379a0000000000000000000000000000000000000000000000000000000008152600401610dba906125c4565b60405180910390fd5b600073ffffffffffffffffffffffffffffffffffffffff168273ffffffffffffffffffffffffffffffffffffffff161415610e33576040517f08c379a0000000000000000000000000000000000000000000000000000000008152600401610e2a90612604565b60405180910390fd5b610e3e838383611502565b610e49600082610bff565b6001600360008573ffffffffffffffffffffffffffffffffffffffff1673ffffffffffffffffffffffffffffffffffffffff1681526020019081526020016000206000828254610e9991906128d0565b925050819055506001600360008473ffffffffffffffffffffffffffffffffffffffff1673ffffffffffffffffffffffffffffffffffffffff1681526020019081526020016000206000828254610ef09190612849565b92505081905550816002600083815260200190815260200160002060006101000a81548173ffffffffffffffffffffffffffffffffffffffff021916908373ffffffffffffffffffffffffffffffffffffffff160217905550808273ffffffffffffffffffffffffffffffffffffffff168473ffffffffffffffffffffffffffffffffffffffff167fddf252ad1be2c89b69c2b068fc378daa952ba7f163c4a11628f55a4df523b3ef60405160405180910390a4610faf8383836115b8565b505050565b610fbd816115bd565b50565b610fc8610bf7565b73ffffffffffffffffffffffffffffffffffffffff16610fe66108ab565b73ffffffffffffffffffffffffffffffffffffffff161461103c576040517f08c379a0000000000000000000000000000000000000000000000000000000008152600401611033906126c4565b60405180910390fd5b565b6000600760009054906101000a900473ffffffffffffffffffffffffffffffffffffffff16905081600760006101000a81548173ffffffffffffffffffffffffffffffffffffffff021916908373ffffffffffffffffffffffffffffffffffffffff1602179055508173ffffffffffffffffffffffffffffffffffffffff168173ffffffffffffffffffffffffffffffffffffffff167f8be0079c531659141344cd1fd0a4f28419497f9722a3daafe3b4186f6b6457e060405160405180910390a35050565b8173ffffffffffffffffffffffffffffffffffffffff168373ffffffffffffffffffffffffffffffffffffffff161415611173576040517f08c379a000000000000000000000000000000000000000000000000000000000815260040161116a90612624565b60405180910390fd5b80600560008573ffffffffffffffffffffffffffffffffffffffff1673ffffffffffffffffffffffffffffffffffffffff16815260200190815260200160002060008473ffffffffffffffffffffffffffffffffffffffff1673ffffffffffffffffffffffffffffffffffffffff16815260200190815260200160002060006101000a81548160ff0219169083151502179055508173ffffffffffffffffffffffffffffffffffffffff168373ffffffffffffffffffffffffffffffffffffffff167f17307eab39ab6107e8899845ad3d59bd9653f200f220920489ca2b5937696c31836040516112649190612547565b60405180910390a3505050565b61127c848484610d4d565b61128884848484611610565b6112c7576040517f08c379a00000000000000000000000000000000000000000000000000000000081526004016112be90612584565b60405180910390fd5b50505050565b60606112d882610bac565b60006006600084815260200190815260200160002080546112f8906129ba565b80601f0160208091040260200160405190810160405280929190818152602001828054611324906129ba565b80156113715780601f1061134657610100808354040283529160200191611371565b820191906000526020600020905b81548152906001019060200180831161135457829003601f168201915b5050505050905060006113826117a7565b90506000815114156113985781925050506113db565b6000825111156113cd5780826040516020016113b59291906124bc565b604051602081830303815290604052925050506113db565b6113d6846117be565b925050505b919050565b600081600001549050919050565b6001816000016000828254019250508190555050565b61141e828260405180602001604052806000815250611826565b5050565b61142b82611496565b61146a576040517f08c379a000000000000000000000000000000000000000000000000000000000815260040161146190612664565b60405180910390fd5b80600660008481526020019081526020016000209080519060200190611491929190611d4d565b505050565b60008073ffffffffffffffffffffffffffffffffffffffff166002600084815260200190815260200160002060009054906101000a900473ffffffffffffffffffffffffffffffffffffffff1673ffffffffffffffffffffffffffffffffffffffff1614159050919050565b600073ffffffffffffffffffffffffffffffffffffffff168373ffffffffffffffffffffffffffffffffffffffff1614806115695750600073ffffffffffffffffffffffffffffffffffffffff168273ffffffffffffffffffffffffffffffffffffffff16145b6115a8576040517f08c379a000000000000000000000000000000000000000000000000000000000815260040161159f90612704565b60405180910390fd5b6115b3838383611881565b505050565b505050565b6115c681611886565b60006006600083815260200190815260200160002080546115e6906129ba565b90501461160d5760066000828152602001908152602001600020600061160c9190611dd3565b5b50565b60006116318473ffffffffffffffffffffffffffffffffffffffff166119a3565b1561179a578373ffffffffffffffffffffffffffffffffffffffff1663150b7a0261165a610bf7565b8786866040518563ffffffff1660e01b815260040161167c94939291906124fb565b602060405180830381600087803b15801561169657600080fd5b505af19250505080156116c757506040513d601f19601f820116820180604052508101906116c4919061218d565b60015b61174a573d80600081146116f7576040519150601f19603f3d011682016040523d82523d6000602084013e6116fc565b606091505b50600081511415611742576040517f08c379a000000000000000000000000000000000000000000000000000000000815260040161173990612584565b60405180910390fd5b805181602001fd5b63150b7a0260e01b7bffffffffffffffffffffffffffffffffffffffffffffffffffffffff1916817bffffffffffffffffffffffffffffffffffffffffffffffffffffffff19161491505061179f565b600190505b949350505050565b606060405180602001604052806000815250905090565b60606117c982610bac565b60006117d36117a7565b905060008151116117f3576040518060200160405280600081525061181e565b806117fd846119c6565b60405160200161180e9291906124bc565b6040516020818303038152906040525b915050919050565b6118308383611b73565b61183d6000848484611610565b61187c576040517f08c379a000000000000000000000000000000000000000000000000000000000815260040161187390612584565b60405180910390fd5b505050565b505050565b60006118918261072d565b905061189f81600084611502565b6118aa600083610bff565b6001600360008373ffffffffffffffffffffffffffffffffffffffff1673ffffffffffffffffffffffffffffffffffffffff16815260200190815260200160002060008282546118fa91906128d0565b925050819055506002600083815260200190815260200160002060006101000a81549073ffffffffffffffffffffffffffffffffffffffff021916905581600073ffffffffffffffffffffffffffffffffffffffff168273ffffffffffffffffffffffffffffffffffffffff167fddf252ad1be2c89b69c2b068fc378daa952ba7f163c4a11628f55a4df523b3ef60405160405180910390a461199f816000846115b8565b5050565b6000808273ffffffffffffffffffffffffffffffffffffffff163b119050919050565b60606000821415611a0e576040518060400160405280600181526020017f30000000000000000000000000000000000000000000000000000000000000008152509050611b6e565b600082905060005b60008214611a40578080611a2990612a1d565b915050600a82611a39919061289f565b9150611a16565b60008167ffffffffffffffff811115611a82577f4e487b7100000000000000000000000000000000000000000000000000000000600052604160045260246000fd5b6040519080825280601f01601f191660200182016040528015611ab45781602001600182028036833780820191505090505b5090505b60008514611b6757600182611acd91906128d0565b9150600a85611adc9190612a66565b6030611ae89190612849565b60f81b818381518110611b24577f4e487b7100000000000000000000000000000000000000000000000000000000600052603260045260246000fd5b60200101907effffffffffffffffffffffffffffffffffffffffffffffffffffffffffffff1916908160001a905350600a85611b60919061289f565b9450611ab8565b8093505050505b919050565b600073ffffffffffffffffffffffffffffffffffffffff168273ffffffffffffffffffffffffffffffffffffffff161415611be3576040517f08c379a0000000000000000000000000000000000000000000000000000000008152600401611bda906126a4565b60405180910390fd5b611bec81611496565b15611c2c576040517f08c379a0000000000000000000000000000000000000000000000000000000008152600401611c23906125e4565b60405180910390fd5b611c3860008383611502565b6001600360008473ffffffffffffffffffffffffffffffffffffffff1673ffffffffffffffffffffffffffffffffffffffff1681526020019081526020016000206000828254611c889190612849565b92505081905550816002600083815260200190815260200160002060006101000a81548173ffffffffffffffffffffffffffffffffffffffff021916908373ffffffffffffffffffffffffffffffffffffffff160217905550808273ffffffffffffffffffffffffffffffffffffffff16600073ffffffffffffffffffffffffffffffffffffffff167fddf252ad1be2c89b69c2b068fc378daa952ba7f163c4a11628f55a4df523b3ef60405160405180910390a4611d49600083836115b8565b5050565b828054611d59906129ba565b90600052602060002090601f016020900481019282611d7b5760008555611dc2565b82601f10611d9457805160ff1916838001178555611dc2565b82800160010185558215611dc2579182015b82811115611dc1578251825591602001919060010190611da6565b5b509050611dcf9190611e13565b5090565b508054611ddf906129ba565b6000825580601f10611df15750611e10565b601f016020900490600052602060002090810190611e0f9190611e13565b5b50565b5b80821115611e2c576000816000905550600101611e14565b5090565b6000611e43611e3e846127a4565b61277f565b905082815260208101848484011115611e5b57600080fd5b611e66848285612978565b509392505050565b6000611e81611e7c846127d5565b61277f565b905082815260208101848484011115611e9957600080fd5b611ea4848285612978565b509392505050565b600081359050611ebb81612f21565b92915050565b600081359050611ed081612f38565b92915050565b600081359050611ee581612f4f565b92915050565b600081519050611efa81612f4f565b92915050565b600082601f830112611f1157600080fd5b8135611f21848260208601611e30565b91505092915050565b600082601f830112611f3b57600080fd5b8135611f4b848260208601611e6e565b91505092915050565b600081359050611f6381612f66565b92915050565b600060208284031215611f7b57600080fd5b6000611f8984828501611eac565b91505092915050565b60008060408385031215611fa557600080fd5b6000611fb385828601611eac565b9250506020611fc485828601611eac565b9150509250929050565b600080600060608486031215611fe357600080fd5b6000611ff186828701611eac565b935050602061200286828701611eac565b925050604061201386828701611f54565b9150509250925092565b6000806000806080858703121561203357600080fd5b600061204187828801611eac565b945050602061205287828801611eac565b935050604061206387828801611f54565b925050606085013567ffffffffffffffff81111561208057600080fd5b61208c87828801611f00565b91505092959194509250565b600080604083850312156120ab57600080fd5b60006120b985828601611eac565b92505060206120ca85828601611ec1565b9150509250929050565b600080604083850312156120e757600080fd5b60006120f585828601611eac565b925050602083013567ffffffffffffffff81111561211257600080fd5b61211e85828601611f2a565b9150509250929050565b6000806040838503121561213b57600080fd5b600061214985828601611eac565b925050602061215a85828601611f54565b9150509250929050565b60006020828403121561217657600080fd5b600061218484828501611ed6565b91505092915050565b60006020828403121561219f57600080fd5b60006121ad84828501611eeb565b91505092915050565b6000602082840312156121c857600080fd5b60006121d684828501611f54565b91505092915050565b6121e881612904565b82525050565b6121f781612916565b82525050565b600061220882612806565b612212818561281c565b9350612222818560208601612987565b61222b81612b53565b840191505092915050565b600061224182612811565b61224b818561282d565b935061225b818560208601612987565b61226481612b53565b840191505092915050565b600061227a82612811565b612284818561283e565b9350612294818560208601612987565b80840191505092915050565b60006122ad60328361282d565b91506122b882612b64565b604082019050919050565b60006122d060268361282d565b91506122db82612bb3565b604082019050919050565b60006122f360258361282d565b91506122fe82612c02565b604082019050919050565b6000612316601c8361282d565b915061232182612c51565b602082019050919050565b600061233960248361282d565b915061234482612c7a565b604082019050919050565b600061235c60198361282d565b915061236782612cc9565b602082019050919050565b600061237f60298361282d565b915061238a82612cf2565b604082019050919050565b60006123a2602e8361282d565b91506123ad82612d41565b604082019050919050565b60006123c5603e8361282d565b91506123d082612d90565b604082019050919050565b60006123e860208361282d565b91506123f382612ddf565b602082019050919050565b600061240b60208361282d565b915061241682612e08565b602082019050919050565b600061242e60188361282d565b915061243982612e31565b602082019050919050565b600061245160128361282d565b915061245c82612e5a565b602082019050919050565b600061247460218361282d565b915061247f82612e83565b604082019050919050565b6000612497602e8361282d565b91506124a282612ed2565b604082019050919050565b6124b68161296e565b82525050565b60006124c8828561226f565b91506124d4828461226f565b91508190509392505050565b60006020820190506124f560008301846121df565b92915050565b600060808201905061251060008301876121df565b61251d60208301866121df565b61252a60408301856124ad565b818103606083015261253c81846121fd565b905095945050505050565b600060208201905061255c60008301846121ee565b92915050565b6000602082019050818103600083015261257c8184612236565b905092915050565b6000602082019050818103600083015261259d816122a0565b9050919050565b600060208201905081810360008301526125bd816122c3565b9050919050565b600060208201905081810360008301526125dd816122e6565b9050919050565b600060208201905081810360008301526125fd81612309565b9050919050565b6000602082019050818103600083015261261d8161232c565b9050919050565b6000602082019050818103600083015261263d8161234f565b9050919050565b6000602082019050818103600083015261265d81612372565b9050919050565b6000602082019050818103600083015261267d81612395565b9050919050565b6000602082019050818103600083015261269d816123b8565b9050919050565b600060208201905081810360008301526126bd816123db565b9050919050565b600060208201905081810360008301526126dd816123fe565b9050919050565b600060208201905081810360008301526126fd81612421565b9050919050565b6000602082019050818103600083015261271d81612444565b9050919050565b6000602082019050818103600083015261273d81612467565b9050919050565b6000602082019050818103600083015261275d8161248a565b9050919050565b600060208201905061277960008301846124ad565b92915050565b600061278961279a565b905061279582826129ec565b919050565b6000604051905090565b600067ffffffffffffffff8211156127bf576127be612b24565b5b6127c882612b53565b9050602081019050919050565b600067ffffffffffffffff8211156127f0576127ef612b24565b5b6127f982612b53565b9050602081019050919050565b600081519050919050565b600081519050919050565b600082825260208201905092915050565b600082825260208201905092915050565b600081905092915050565b60006128548261296e565b915061285f8361296e565b9250827fffffffffffffffffffffffffffffffffffffffffffffffffffffffffffffffff0382111561289457612893612a97565b5b828201905092915050565b60006128aa8261296e565b91506128b58361296e565b9250826128c5576128c4612ac6565b5b828204905092915050565b60006128db8261296e565b91506128e68361296e565b9250828210156128f9576128f8612a97565b5b828203905092915050565b600061290f8261294e565b9050919050565b60008115159050919050565b60007fffffffff0000000000000000000000000000000000000000000000000000000082169050919050565b600073ffffffffffffffffffffffffffffffffffffffff82169050919050565b6000819050919050565b82818337600083830152505050565b60005b838110156129a557808201518184015260208101905061298a565b838111156129b4576000848401525b50505050565b600060028204905060018216806129d257607f821691505b602082108114156129e6576129e5612af5565b5b50919050565b6129f582612b53565b810181811067ffffffffffffffff82111715612a1457612a13612b24565b5b80604052505050565b6000612a288261296e565b91507fffffffffffffffffffffffffffffffffffffffffffffffffffffffffffffffff821415612a5b57612a5a612a97565b5b600182019050919050565b6000612a718261296e565b9150612a7c8361296e565b925082612a8c57612a8b612ac6565b5b828206905092915050565b7f4e487b7100000000000000000000000000000000000000000000000000000000600052601160045260246000fd5b7f4e487b7100000000000000000000000000000000000000000000000000000000600052601260045260246000fd5b7f4e487b7100000000000000000000000000000000000000000000000000000000600052602260045260246000fd5b7f4e487b7100000000000000000000000000000000000000000000000000000000600052604160045260246000fd5b6000601f19601f8301169050919050565b7f4552433732313a207472616e7366657220746f206e6f6e20455243373231526560008201527f63656976657220696d706c656d656e7465720000000000000000000000000000602082015250565b7f4f776e61626c653a206e6577206f776e657220697320746865207a65726f206160008201527f6464726573730000000000000000000000000000000000000000000000000000602082015250565b7f4552433732313a207472616e736665722066726f6d20696e636f72726563742060008201527f6f776e6572000000000000000000000000000000000000000000000000000000602082015250565b7f4552433732313a20746f6b656e20616c7265616479206d696e74656400000000600082015250565b7f4552433732313a207472616e7366657220746f20746865207a65726f2061646460008201527f7265737300000000000000000000000000000000000000000000000000000000602082015250565b7f4552433732313a20617070726f766520746f2063616c6c657200000000000000600082015250565b7f4552433732313a2061646472657373207a65726f206973206e6f74206120766160008201527f6c6964206f776e65720000000000000000000000000000000000000000000000602082015250565b7f45524337323155524953746f726167653a2055524920736574206f66206e6f6e60008201527f6578697374656e7420746f6b656e000000000000000000000000000000000000602082015250565b7f4552433732313a20617070726f76652063616c6c6572206973206e6f7420746f60008201527f6b656e206f776e6572206e6f7220617070726f76656420666f7220616c6c0000602082015250565b7f4552433732313a206d696e7420746f20746865207a65726f2061646472657373600082015250565b7f4f776e61626c653a2063616c6c6572206973206e6f7420746865206f776e6572600082015250565b7f4552433732313a20696e76616c696420746f6b656e2049440000000000000000600082015250565b7f4d656f772063616e74207472616e736665720000000000000000000000000000600082015250565b7f4552433732313a20617070726f76616c20746f2063757272656e74206f776e6560008201527f7200000000000000000000000000000000000000000000000000000000000000602082015250565b7f4552433732313a2063616c6c6572206973206e6f7420746f6b656e206f776e6560008201527f72206e6f7220617070726f766564000000000000000000000000000000000000602082015250565b612f2a81612904565b8114612f3557600080fd5b50565b612f4181612916565b8114612f4c57600080fd5b50565b612f5881612922565b8114612f6357600080fd5b50565b612f6f8161296e565b8114612f7a57600080fd5b5056fea264697066735822122040ec3fcd7cce96c0ab146856ccaebbecba4d7f09c19ed794183498818df5608f64736f6c63430008040033",
  "linkReferences": {},
  "deployedLinkReferences": {}
}